:100000000C941B040C9443040C9443040C9443047C
:100010000C9443040C9443040C9443040C94430444
:100020000C9443040C9443040C9443040C94430434
:100030000C9443040C9443040C9443040C94430424
:100040000C942A140C9443040C9443040C9443041D
:100050000C9443040C9443040C9443040C94430404
:100060000C9443040C9443044276FC30825A825A26
:10007000FC3042768A7DF9184276FC306E6A1D4764
:10008000825A825A1D476E6AFC304276F9188A7D80
:10009000627F8C0C8A7DF9187D7A28254276FC30A7
:1000A000E370573C6E6A1D47F2623451825A825A9D
:1000B0003451F2621D476E6A573CE370FC30427661
:1000C00028257D7AF9188A7D8C0C627FD97F4806B5
:1000D000627F8C0C9D7EC8128A7DF9182A7C1A1FBB
:1000E0007D7A282585781F2B4276FC30B673BA3688
:1000F000E370573CCA6DCE416E6A1D47D066404CD6
:10010000F2623451D75EF655825A825AF655D75E5E
:100110003451F262404CD0661D476E6ACE41CA6DC2
:10012000573CE370BA36B673FC3042761F2B8578A5
:1001300028257D7A1A1F2A7CF9188A7DC8129D7E8F
:100140008C0C627F4806D97FF67F2403D97F48064E
:10015000A77F6B09627F8C0C0A7FAB0F9D7EC81254
:100160001E7EE2158A7DF918E47C0C1C2A7C1A1F7D
:100170005D7B24227D7A28258A79272885781F2B84
:100180006C77112E4276FC300575DF33B673BA36C4
:1001900055728D39E370573C5F6F173FCA6DCE4182
:1001A000246C7B446E6A1D47A768B449D066404CF6
:1001B000E964C04EF2623451EC609B53D75EF65551
:1001C000B45C4358825A825A4358B45CF655D75EA1
:1001D0009B53EC603451F262C04EE964404CD066EF
:1001E000B449A7681D476E6A7B44246CCE41CA6D32
:1001F000173F5F6F573CE3708D395572BA36B6734F
:10020000DF330575FC304276112E6C771F2B857815
:1002100027288A7928257D7A24225D7B1A1F2A7C4B
:100220000C1CE47CF9188A7DE2151E7EC8129D7EA6
:10023000AB0F0A7F8C0C627F6B09A77F4806D97FC2
:100240002403F67FF00FF81FF42FFC3FF24FFA5F04
:10025000F66FFE7FF18FF99FF5AFFDBFF3CFFBDFA8
:10026000F7EFE007E817E427EC37E247EA57E667DD
:10027000EE77E187E997E5A7EDB7E3C7EBD7D00BBA
:10028000D81BD42BDC3BD24BDA5BD66BDE7BD18B1D
:10029000D99BD5ABDDBBD3CBC003C813C423CC33B0
:1002A000C243CA53C663CE73C183C993C5A3CDB33A
:1002B000B00DB81DB42DBC3DB24DBA5DB66DBE7D5E
:1002C000B18DB99DB5ADA005A815A425AC35A24545
:1002D000AA55A665AE75A185A99590099819942986
:1002E0009C3992499A5996699E7991898001881121
:1002F00084218C3182418A5186618E71700E781E04
:10030000742E7C3E724E7A5E766E600668166426A7
:100310006C3662466A56500A581A542A5C3A524A57
:100320004002481244224C32300C381C342C200439
:100330002814100800010102020202030303030350
:100340000304040404040404040505050505050567
:10035000050505060606060606060606060606073F
:10036000070707070707070707070707070808081A
:1003700008080808080808080808080808090909FA
:100380000909090909090909090909090909090ADC
:100390000A0A0A0A0A0A0A0A0A0A0A0A0A0A0A0ABD
:1003A0000A0A0A0B0B0B0B0B0B0B0B0B0B0B0B0BA0
:1003B0000B0B0B0B0B0B0B0B0B0C0C0C0C0C0C0C86
:1003C0000C0C0C0C0C0C0C0C0C0C0C0C0C0C0C0C6D
:1003D0000C0D0D0D0D0D0D0D0D0D0D0D0D0D0D0D4E
:1003E0000D0D0D0D0D0D0D0D0D0D0D0E0E0E0E0E38
:1003F0000E0E0E0E0E0E0E0E0E0E0E0E0E0E0E0E1D
:100400000E0E0E0E0E0E0E0F0F0F0F0F0F0F0F0F03
:100410000F0F0F0F0F0F0F0F0F0F0F0F0F0F0F0FEC
:100420000F0F0F0F0F1010101010101010101010D1
:10043000101010100006080A0B0D0E0F10111213E9
:100440001414151617171819191A1B1B1C1C1D1D1F
:100450001E1E1F1F20202121222223232424252584
:10046000262626272728282829292A2A2A2B2B2B03
:100470002C2C2D2D2D2E2E2E2F2F2F303030313194
:100480003132323233333334343434353535363631
:100490003637373737383838393939393A3A3A3BD5
:1004A0003B3B3B3C3C3C3C3D3D3D3D3E3E3E3E3F80
:1004B0003F3F3F40000B101417191C1E202224261A
:1004C00027292A2C2D2F30313334353637393A3B12
:1004D0003C3D3E3F40414243444546474848494AE7
:1004E0004B4C4D4E4E4F50515252535455555657FA
:1004F0005858595A5B5B5C5D5D5E5F5F606161622D
:1005000063636465656666676868696A6A6B6B6C75
:100510006D6D6E6E6F6F70717172727373747475CE
:1005200076767777787879797A7A7B7B7C7C7D7D33
:100530007E7E7F7F0010171C2024272A2D30333524
:10054000373A3C3E4042444648494B4D4E50525348
:10055000555658595B5C5D5F6061636465666869A8
:100560006A6B6D6E6F7071727374767778797A7B5F
:100570007C7D7E7F808182838485868788898A8B43
:100580008B8C8D8E8F909192939494959697989949
:10059000999A9B9C9D9E9E9FA0A1A2A2A3A4A5A662
:1005A000A6A7A8A9A9AAABACACADAEAFAFB0B1B18C
:1005B000B2B3B4B4B5B6B6B7B8B9B9BABBBBBCBDC3
:1005C000BDBEBFBFC0C1C1C2C3C3C4C5C5C6C7C706
:1005D000C8C8C9CACACBCCCCCDCECECFCFD0D1D152
:1005E000D2D2D3D4D4D5D5D6D7D7D8D8D9DADADBA6
:1005F000DBDCDDDDDEDEDFDFE0E1E1E2E2E3E3E400
:10060000E5E5E6E6E7E7E8E8E9EAEAEBEBECECED5E
:10061000EDEEEEEFEFF0F1F1F2F2F3F3F4F4F5F5C5
:10062000F6F6F7F7F8F8F9F9FAFAFBFBFCFCFDFD32
:10063000FEFEFFFF0000050014002D0050007C00AE
:10064000B300F3003D019101EF015602C7024103DF
:10065000C5035204E90488053106E3069D076108D5
:100660002D09010ADE0AC30BB10CA60DA30EA80FBB
:10067000B410C811E21204142D155C169217CE188E
:10068000101A581BA61CF91D521FAF2012227923E5
:10069000E5245426C8274029BB2A392CBB2D3F2FDF
:1006A000C6304F32DA336835F6368738183AAB3B06
:1006B0003E3DD13E6540F9418C431F45B14642481D
:1006C000D1495F4BEC4C764EFE4F84510753875413
:1006D00003567D57F258645AD25B3B5DA05E0060C2
:1006E0005B61B16202644C659266D1670A693C6ADB
:1006F000686B8D6CAC6DC36ED36FDC70DC71D672C1
:10070000C773B07491756A763A770278C178777951
:10071000247AC87A647BF57B7E7CFD7C737DDF7DEB
:10072000417E9A7EE97E2E7F6A7F9B7FC37FE17F39
:10073000F57FFF7FFF7FF57FE17FC37F9B7F6A7F30
:100740002E7FE97E9A7E417EDF7D737DFD7C7E7CFF
:10075000F57B647BC87A247A7779C17802783A7716
:100760006A769175B074C773D672DC71DC70D36F22
:10077000C36EAC6D8D6C686B3C6A0A69D16792661A
:100780004C650264B1625B610060A05E3B5DD25B60
:10079000645AF2587D570356875407538451FE4FCD
:1007A000764EEC4C5F4BD1494248B1461F458C43D5
:1007B000F9416540D13E3E3DAB3B183A8738F636AD
:1007C0006835DA334F32C6303F2FBB2D392CBB2A68
:1007D0004029C8275426E52479231222AF20521F2E
:1007E000F91DA61C581B101ACE1892175C162D1551
:1007F0000414E212C811B410A80FA30EA60DB10C78
:10080000C30BDE0A010A2D0961089D07E3063106C4
:100810008805E9045204C5034103C7025602EF01EB
:1008200091013D01F300B3007C0050002D00140045
:1008300005000000151911241FBECFEFD8E0DEBF60
:10084000CDBF11E0A0E0B1E0E8E9F3E302C005901C
:100850000D92AC37B107D9F726E0ACE7B1E001C0A3
:100860001D92AD30B207E1F714E0CBE1D4E004C053
:100870002197FE010E94B019CA31D107C9F70E9421
:1008800074140C94CA190C940000BF92CF92DF929A
:10089000EF92FF920F931F93CF93DF9300D01F929D
:1008A000CDB7DEB7FC01A081B1811296CD90DC906E
:1008B00019821A821B827C0186E0E80EF11C10E08E
:1008C00000E0D7012D917D01222321F11296BC90E9
:1008D000BB2001F130E050E040E02F5F3F4F4F4F31
:1008E0005F4FAFEFB0E00E946F199B01AC018B2D01
:1008F00090E0B0E0A0E0BC01CD016F5F7F4F8F4F73
:100900009F4F0E942519A1E0B0E0AC0FBD1FA00FC2
:10091000B11F8C930F5F1F4F0330110591F6458572
:100920005685628173819E012F5F3F4FCF01F60193
:1009300009950F900F900F90DF91CF911F910F911C
:10094000FF90EF90DF90CF90BF9008959C01809131
:100950000B0690910C06FC012150310930F03097C4
:1009600039F00480F581E02DF7CF309709F0CF0101
:100970000895CF93DF93EC01E881F9810480F5813C
:10098000E02D09958AE495E09B838A838CE390E0CF
:100990009E878D87E881F9810284F385E02DCE0161
:1009A0000995009701F19C0150E040E060E472E499
:1009B0008FE090E00E944919809101069091020613
:1009C000A0910306B091040682179307A407B50708
:1009D00010F4DA01C9018093010690930206A093F6
:1009E0000306B0930406CE01DF91CF91089520E075
:1009F000DC0160FF03C001C02D932D936250E0F72E
:100A00007040D0F708953FB7F89480918504909195
:100A10008604A0918704B091880426B5A89B05C0E0
:100A20002F3F19F00196A11DB11D3FBFBA2FA92F6D
:100A3000982F8827BC01CD01620F711D811D911D6A
:100A400042E0660F771F881F991F4A95D1F70895D6
:100A50000F931F93CF93DF9320917F042F5F322F4B
:100A6000377030937F0420FF2BC020E831FD2064D5
:100A7000347009F02062205FFC01EC01239600E055
:100A800011E06485662329F070E0C8010E943519E1
:100A90006F5F6187322F369F030E30E0311D1124C6
:100AA000311110C01682662311F0615061873196B2
:100AB000EC17FD0731F7DF91CF911F910F9108954A
:100AC00020E0D4CF31503683EECFCF93DF93EC01CB
:100AD0000E94030579836883DF91CF910895CF93B6
:100AE000DF93EC010E94030528813981621B730B9F
:100AF0006A307105B8F3DF91CF9108954F925F92FC
:100B00006F927F928F929F92AF92CF92DF92EF92ED
:100B1000FF920F931F93CF93DF93EB010F962C015E
:100B20000E946F05F894E881F9810BB100621BB156
:100B30001F7D1BB9CA848F814C2D481B842F4F8386
:100B40009F846A807B80FD84EC84DE84F394E3944C
:100B5000D3949E8138858984AB844181D30120E080
:100B6000622F722F7181442788947111780F08F4D5
:100B70007FEF81958894F0FC470F47958894F1FCAE
:100B8000470F47958894F2FC470F47958894F3FCEC
:100B9000470F47958894F4FC470F47958894F5FCD8
:100BA000470F47958894F6FC470F47958894F7FCC4
:100BB000470F47958894272FF110242F8C0D422F33
:100BC000002C0BB900C047FF1BB970812227889405
:100BD00000C000C0002C1BB97111790F00C0002C9F
:100BE0000BB900C046FF1BB908F47FEF91958894BC
:100BF00000C000C0002C1BB9E0FC270F00C0002C77
:100C00000BB900C045FF1BB927958894E1FC270F5D
:100C100000C000C0002C1BB92795889400C0002C90
:100C20000BB900C044FF1BB9E2FC270F279588943D
:100C300000C000C0002C1BB9E3FC270F00C0002C33
:100C40000BB900C043FF1BB927958894E4FC270F1C
:100C500000C000C0002C1BB92795889400C0002C50
:100C60000BB900C042FF1BB9E5FC270F27958894FC
:100C700000C000C0002C1BB9E6FC270F00C0002CF0
:100C80000BB900C041FF1BB927958894E7FC270FDB
:100C900000C000C0002C1BB92795889400C0002C10
:100CA0000BB900C040FF1BB9472FE110422F980D30
:100CB00000C000C0002C1BB900C000C0002C0BB944
:100CC00000C047FF1BB972812227889400C000C072
:100CD000002C1BB97111730F00C0002C0BB900C0A0
:100CE00046FF1BB908F47FEFE90DF11D00C000C0FD
:100CF000002C1BB9D0FC270F00C0002C0BB900C082
:100D000045FF1BB927958894D1FC270F00C000C070
:100D1000002C1BB92795889400C0002C0BB900C08B
:100D200044FF1BB9D2FC270F2795889400C000C050
:100D3000002C1BB9D3FC270F00C0002C0BB900C03E
:100D400043FF1BB927958894D4FC270F00C000C02F
:100D5000002C1BB92795889400C0002C0BB900C04B
:100D600042FF1BB9D5FC270F2795889400C000C00F
:100D7000002C1BB9D6FC270F00C0002C0BB900C0FB
:100D800041FF1BB927958894D7FC270F00C000C0EE
:100D9000002C1BB92795889400C0002C0BB900C00B
:100DA00040FF1BB9472FD110422F319500C000C022
:100DB000002C1BB93A0D00C000C00BB900C047FFA2
:100DC0001BB971812227889400C000C0002C1BB978
:100DD0007111780F00C0002C0BB900C046FF1BB981
:100DE00008F47FEF8195889400C000C0002C1BB9E7
:100DF000F0FC270F00C0002C0BB900C045FF1BB949
:100E000027958894F1FC270F00C000C0002C1BB967
:100E10002795889400C0002C0BB900C044FF1BB973
:100E2000F2FC270F2795889400C000C0002C1BB946
:100E3000F3FC270F00C0002C0BB900C043FF1BB907
:100E400027958894F4FC270F00C000C0002C1BB924
:100E50002795889400C0002C0BB900C042FF1BB935
:100E6000F5FC270F2795889400C000C0002C1BB903
:100E7000F6FC270F00C0002C0BB900C041FF1BB9C6
:100E800027958894F7FC270F00C000C0002C1BB9E1
:100E90002795889400C0002C0BB900C040FF1BB9F7
:100EA000472FF110422F8C0D00C000C0002C1BB941
:100EB000119709F086CE20EE31E0D3010E94681927
:100EC000DC01CB01F4E0B695A79597958795FA9547
:100ED000D1F730E020E0B901EAE96E9E060C611D11
:100EE0007E9E600D711D1124670D711D860F971F69
:100EF000A11DB11D893E43E09407A105B10508F489
:100F000034C0885E9340A109B10942E0B695A79527
:100F1000979587954A95D1F747E0849F080E211D44
:100F2000949F200D311D1124290F311D60917E04E5
:100F300070E0860F971F820F931F4091810450919C
:100F400082046091830470918404292F3327420F17
:100F5000531F611D711D409381045093820460935F
:100F600083047093840480937E047894C201DF919B
:100F7000CF911F910F91FF90EF90DF90CF90AF90A6
:100F80009F908F907F906F905F904F900C9465052D
:100F900080E991E00895559A08954F925F926F927B
:100FA0007F928F929F92AF92CF92DF92EF92FF92B9
:100FB0000F931F93CF93DF93EB010F962C010E94A9
:100FC0006F05F894E881F9810BB100641BB11F7BB8
:100FD0001BB9CA848F814C2D481B842F4F839F845B
:100FE0006A807B80FD84EC84DE84F394E394D39464
:100FF0009E8138858984AB844181D30120E0622FB2
:10100000722F7181442788947111780F08F47FEF53
:1010100081958894F0FC470F47958894F1FC470F21
:1010200047958894F2FC470F47958894F3FC470F47
:1010300047958894F4FC470F47958894F5FC470F33
:1010400047958894F6FC470F47958894F7FC470F1F
:1010500047958894272FF110242F8C0D422F002CB8
:101060000BB900C047FF1BB970812227889400C0CC
:1010700000C0002C1BB97111790F00C0002C0BB9F6
:1010800000C046FF1BB908F47FEF9195889400C01B
:1010900000C0002C1BB9E0FC270F00C0002C0BB9CE
:1010A00000C045FF1BB927958894E1FC270F00C0BD
:1010B00000C0002C1BB92795889400C0002C0BB9E8
:1010C00000C044FF1BB9E2FC270F2795889400C09D
:1010D00000C0002C1BB9E3FC270F00C0002C0BB98B
:1010E00000C043FF1BB927958894E4FC270F00C07C
:1010F00000C0002C1BB92795889400C0002C0BB9A8
:1011000000C042FF1BB9E5FC270F2795889400C05B
:1011100000C0002C1BB9E6FC270F00C0002C0BB947
:1011200000C041FF1BB927958894E7FC270F00C03A
:1011300000C0002C1BB92795889400C0002C0BB967
:1011400000C040FF1BB9472FE110422F980D00C08F
:1011500000C0002C1BB900C000C0002C0BB900C09F
:1011600047FF1BB972812227889400C000C0002C61
:101170001BB97111730F00C0002C0BB900C046FFE2
:101180001BB908F47FEFE90DF11D00C000C0002C71
:101190001BB9D0FC270F00C0002C0BB900C045FFC5
:1011A0001BB927958894D1FC270F00C000C0002CE4
:1011B0001BB92795889400C0002C0BB900C044FFD0
:1011C0001BB9D2FC270F2795889400C000C0002CC3
:1011D0001BB9D3FC270F00C0002C0BB900C043FF84
:1011E0001BB927958894D4FC270F00C000C0002CA1
:1011F0001BB92795889400C0002C0BB900C042FF92
:101200001BB9D5FC270F2795889400C000C0002C7F
:101210001BB9D6FC270F00C0002C0BB900C041FF42
:101220001BB927958894D7FC270F00C000C0002C5D
:101230001BB92795889400C0002C0BB900C040FF53
:101240001BB9472FD110422F319500C000C0002C90
:101250001BB93A0D00C000C00BB900C047FF1BB955
:1012600071812227889400C000C0002C1BB9711125
:10127000780F00C0002C0BB900C046FF1BB908F462
:101280007FEF8195889400C000C0002C1BB9F0FC52
:10129000270F00C0002C0BB900C045FF1BB92795D4
:1012A0008894F1FC270F00C000C0002C1BB92795C3
:1012B000889400C0002C0BB900C044FF1BB9F2FC9D
:1012C000270F2795889400C000C0002C1BB9F3FCA1
:1012D000270F00C0002C0BB900C043FF1BB9279596
:1012E0008894F4FC270F00C000C0002C1BB9279580
:1012F000889400C0002C0BB900C042FF1BB9F5FC5C
:10130000270F2795889400C000C0002C1BB9F6FC5D
:10131000270F00C0002C0BB900C041FF1BB9279557
:101320008894F7FC270F00C000C0002C1BB927953C
:10133000889400C0002C0BB900C040FF1BB9472F98
:10134000F110422F8C0D00C000C0002C1BB911976A
:1013500009F086CE20EE31E0D3010E946819DC014D
:10136000CB01F4E0B695A79597958795FA95D1F7B7
:1013700030E020E0B901EAE96E9E060C611D7E9E18
:10138000600D711D1124670D711D860F971FA11D22
:10139000B11D893E43E09407A105B10508F434C0AE
:1013A000885E9340A109B10942E0B695A79597954B
:1013B00087954A95D1F747E0849F080E211D949F99
:1013C000200D311D1124290F311D60917E0470E024
:1013D000860F971F820F931F4091810450918204C2
:1013E0006091830470918404292F3327420F531F87
:1013F000611D711D409381045093820460938304A6
:101400007093840480937E047894C201DF91CF911D
:101410001F910F91FF90EF90DF90CF90AF909F9032
:101420008F907F906F905F904F900C946505569AC7
:1014300008954F925F926F927F928F929F92AF9298
:10144000CF92DF92EF92FF920F931F93CF93DF9390
:10145000EB010F962C010E946F05F894E881F98149
:101460000BB100681BB11F771BB9CA848F814C2D4B
:10147000481B842F4F839F846A807B80FD84EC848B
:10148000DE84F394E394D3949E8138858984AB847D
:101490004181D30120E0622F722F7181442788940B
:1014A0007111780F08F47FEF81958894F0FC470F55
:1014B00047958894F1FC470F47958894F2FC470FB5
:1014C00047958894F3FC470F47958894F4FC470FA1
:1014D00047958894F5FC470F47958894F6FC470F8D
:1014E00047958894F7FC470F47958894272FF1106C
:1014F000242F8C0D422F002C0BB900C047FF1BB9C5
:1015000070812227889400C000C0002C1BB9711183
:10151000790F00C0002C0BB900C046FF1BB908F4BE
:101520007FEF9195889400C000C0002C1BB9E0FCAF
:10153000270F00C0002C0BB900C045FF1BB9279531
:101540008894E1FC270F00C000C0002C1BB9279530
:10155000889400C0002C0BB900C044FF1BB9E2FC0A
:10156000270F2795889400C000C0002C1BB9E3FC0E
:10157000270F00C0002C0BB900C043FF1BB92795F3
:101580008894E4FC270F00C000C0002C1BB92795ED
:10159000889400C0002C0BB900C042FF1BB9E5FCC9
:1015A000270F2795889400C000C0002C1BB9E6FCCB
:1015B000270F00C0002C0BB900C041FF1BB92795B5
:1015C0008894E7FC270F00C000C0002C1BB92795AA
:1015D000889400C0002C0BB900C040FF1BB9472FF6
:1015E000E110422F980D00C000C0002C1BB900C0B4
:1015F00000C0002C0BB900C047FF1BB97281222725
:10160000889400C000C0002C1BB97111730F00C07A
:10161000002C0BB900C046FF1BB908F47FEFE90DA1
:10162000F11D00C000C0002C1BB9D0FC270F00C06A
:10163000002C0BB900C045FF1BB927958894D1FC3D
:10164000270F00C000C0002C1BB92795889400C04C
:10165000002C0BB900C044FF1BB9D2FC270F279503
:10166000889400C000C0002C1BB9D3FC270F00C019
:10167000002C0BB900C043FF1BB927958894D4FCFC
:10168000270F00C000C0002C1BB92795889400C00C
:10169000002C0BB900C042FF1BB9D5FC270F2795C2
:1016A000889400C000C0002C1BB9D6FC270F00C0D6
:1016B000002C0BB900C041FF1BB927958894D7FCBB
:1016C000270F00C000C0002C1BB92795889400C0CC
:1016D000002C0BB900C040FF1BB9472FD110422F7F
:1016E000319500C000C0002C1BB93A0D00C000C0ED
:1016F0000BB900C047FF1BB971812227889400C035
:1017000000C0002C1BB97111780F00C0002C0BB960
:1017100000C046FF1BB908F47FEF8195889400C094
:1017200000C0002C1BB9F0FC270F00C0002C0BB927
:1017300000C045FF1BB927958894F1FC270F00C016
:1017400000C0002C1BB92795889400C0002C0BB951
:1017500000C044FF1BB9F2FC270F2795889400C0F6
:1017600000C0002C1BB9F3FC270F00C0002C0BB9E4
:1017700000C043FF1BB927958894F4FC270F00C0D5
:1017800000C0002C1BB92795889400C0002C0BB911
:1017900000C042FF1BB9F5FC270F2795889400C0B5
:1017A00000C0002C1BB9F6FC270F00C0002C0BB9A1
:1017B00000C041FF1BB927958894F7FC270F00C094
:1017C00000C0002C1BB92795889400C0002C0BB9D1
:1017D00000C040FF1BB9472FF110422F8C0D00C0F5
:1017E00000C0002C1BB9119709F086CE20EE31E025
:1017F000D3010E946819DC01CB01F4E0B695A795EE
:1018000097958795FA95D1F730E020E0B901EAE99C
:101810006E9E060C611D7E9E600D711D1124670D6C
:10182000711D860F971FA11DB11D893E43E09407CE
:10183000A105B10508F434C0885E9340A109B1093F
:1018400042E0B695A795979587954A95D1F747E0D9
:10185000849F080E211D949F200D311D1124290FF6
:10186000311D60917E0470E0860F971F820F931FD9
:1018700040918104509182046091830470918404AA
:10188000292F3327420F531F611D711D409381047F
:1018900050938204609383047093840480937E0445
:1018A0007894C201DF91CF911F910F91FF90EF903B
:1018B000DF90CF90AF909F908F907F906F905F90D0
:1018C0004F900C946505579A08954F925F926F92CE
:1018D0007F928F929F92AF92CF92DF92EF92FF9280
:1018E0000F931F93CF93DF93EB010F962C010E9470
:1018F0006F05F894E881F98105B1016015B11E7F8B
:1019000015B9CA848F814C2D481B842F4F839F8427
:101910006A807B80FD84EC84DE84F394E394D3942A
:101920009E8138858984AB844181D30120E0622F78
:10193000722F7181442788947111780F08F47FEF1A
:1019400081958894F0FC470F47958894F1FC470FE8
:1019500047958894F2FC470F47958894F3FC470F0E
:1019600047958894F4FC470F47958894F5FC470FFA
:1019700047958894F6FC470F47958894F7FC470FE6
:1019800047958894272FF110242F8C0D422F002C7F
:1019900005B900C047FF15B970812227889400C09F
:1019A00000C0002C15B97111790F00C0002C05B9C9
:1019B00000C046FF15B908F47FEF9195889400C0E8
:1019C00000C0002C15B9E0FC270F00C0002C05B9A1
:1019D00000C045FF15B927958894E1FC270F00C08A
:1019E00000C0002C15B92795889400C0002C05B9BB
:1019F00000C044FF15B9E2FC270F2795889400C06A
:101A000000C0002C15B9E3FC270F00C0002C05B95D
:101A100000C043FF15B927958894E4FC270F00C048
:101A200000C0002C15B92795889400C0002C05B97A
:101A300000C042FF15B9E5FC270F2795889400C028
:101A400000C0002C15B9E6FC270F00C0002C05B91A
:101A500000C041FF15B927958894E7FC270F00C007
:101A600000C0002C15B92795889400C0002C05B93A
:101A700000C040FF15B9472FE110422F980D00C05C
:101A800000C0002C15B900C000C0002C05B900C072
:101A900047FF15B972812227889400C000C0002C2E
:101AA00015B97111730F00C0002C05B900C046FFB5
:101AB00015B908F47FEFE90DF11D00C000C0002C3E
:101AC00015B9D0FC270F00C0002C05B900C045FF98
:101AD00015B927958894D1FC270F00C000C0002CB1
:101AE00015B92795889400C0002C05B900C044FFA3
:101AF00015B9D2FC270F2795889400C000C0002C90
:101B000015B9D3FC270F00C0002C05B900C043FF56
:101B100015B927958894D4FC270F00C000C0002C6D
:101B200015B92795889400C0002C05B900C042FF64
:101B300015B9D5FC270F2795889400C000C0002C4C
:101B400015B9D6FC270F00C0002C05B900C041FF15
:101B500015B927958894D7FC270F00C000C0002C2A
:101B600015B92795889400C0002C05B900C040FF26
:101B700015B9472FD110422F319500C000C0002C5D
:101B800015B93A0D00C000C005B900C047FF15B92E
:101B900071812227889400C000C0002C15B97111F2
:101BA000780F00C0002C05B900C046FF15B908F435
:101BB0007FEF8195889400C000C0002C15B9F0FC1F
:101BC000270F00C0002C05B900C045FF15B92795A7
:101BD0008894F1FC270F00C000C0002C15B9279590
:101BE000889400C0002C05B900C044FF15B9F2FC70
:101BF000270F2795889400C000C0002C15B9F3FC6E
:101C0000270F00C0002C05B900C043FF15B9279568
:101C10008894F4FC270F00C000C0002C15B927954C
:101C2000889400C0002C05B900C042FF15B9F5FC2E
:101C3000270F2795889400C000C0002C15B9F6FC2A
:101C4000270F00C0002C05B900C041FF15B927952A
:101C50008894F7FC270F00C000C0002C15B9279509
:101C6000889400C0002C05B900C040FF15B9472F6B
:101C7000F110422F8C0D00C000C0002C15B9119737
:101C800009F086CE20EE31E0D3010E946819DC0114
:101C9000CB01F4E0B695A79597958795FA95D1F77E
:101CA00030E020E0B901EAE96E9E060C611D7E9EDF
:101CB000600D711D1124670D711D860F971FA11DE9
:101CC000B11D893E43E09407A105B10508F434C075
:101CD000885E9340A109B10942E0B695A795979512
:101CE00087954A95D1F747E0849F080E211D949F60
:101CF000200D311D1124290F311D60917E0470E0EB
:101D0000860F971F820F931F409181045091820488
:101D10006091830470918404292F3327420F531F4D
:101D2000611D711D4093810450938204609383046C
:101D30007093840480937E047894C201DF91CF91E4
:101D40001F910F91FF90EF90DF90CF90AF909F90F9
:101D50008F907F906F905F904F900C946505209AC4
:101D600008954F925F926F927F928F929F92AF925F
:101D7000CF92DF92EF92FF920F931F93CF93DF9357
:101D8000EB010F962C010E946F05F894E881F98110
:101D90000BB108601BB1177F1BB9CA848F814C2D12
:101DA000481B842F4F839F846A807B80FD84EC8452
:101DB000DE84F394E394D3949E8138858984AB8444
:101DC0004181D30120E0622F722F718144278894D2
:101DD0007111780F08F47FEF81958894F0FC470F1C
:101DE00047958894F1FC470F47958894F2FC470F7C
:101DF00047958894F3FC470F47958894F4FC470F68
:101E000047958894F5FC470F47958894F6FC470F53
:101E100047958894F7FC470F47958894272FF11032
:101E2000242F8C0D422F002C0BB900C047FF1BB98B
:101E300070812227889400C000C0002C1BB971114A
:101E4000790F00C0002C0BB900C046FF1BB908F485
:101E50007FEF9195889400C000C0002C1BB9E0FC76
:101E6000270F00C0002C0BB900C045FF1BB92795F8
:101E70008894E1FC270F00C000C0002C1BB92795F7
:101E8000889400C0002C0BB900C044FF1BB9E2FCD1
:101E9000270F2795889400C000C0002C1BB9E3FCD5
:101EA000270F00C0002C0BB900C043FF1BB92795BA
:101EB0008894E4FC270F00C000C0002C1BB92795B4
:101EC000889400C0002C0BB900C042FF1BB9E5FC90
:101ED000270F2795889400C000C0002C1BB9E6FC92
:101EE000270F00C0002C0BB900C041FF1BB927957C
:101EF0008894E7FC270F00C000C0002C1BB9279571
:101F0000889400C0002C0BB900C040FF1BB9472FBC
:101F1000E110422F980D00C000C0002C1BB900C07A
:101F200000C0002C0BB900C047FF1BB972812227EB
:101F3000889400C000C0002C1BB97111730F00C041
:101F4000002C0BB900C046FF1BB908F47FEFE90D68
:101F5000F11D00C000C0002C1BB9D0FC270F00C031
:101F6000002C0BB900C045FF1BB927958894D1FC04
:101F7000270F00C000C0002C1BB92795889400C013
:101F8000002C0BB900C044FF1BB9D2FC270F2795CA
:101F9000889400C000C0002C1BB9D3FC270F00C0E0
:101FA000002C0BB900C043FF1BB927958894D4FCC3
:101FB000270F00C000C0002C1BB92795889400C0D3
:101FC000002C0BB900C042FF1BB9D5FC270F279589
:101FD000889400C000C0002C1BB9D6FC270F00C09D
:101FE000002C0BB900C041FF1BB927958894D7FC82
:101FF000270F00C000C0002C1BB92795889400C093
:10200000002C0BB900C040FF1BB9472FD110422F45
:10201000319500C000C0002C1BB93A0D00C000C0B3
:102020000BB900C047FF1BB971812227889400C0FB
:1020300000C0002C1BB97111780F00C0002C0BB927
:1020400000C046FF1BB908F47FEF8195889400C05B
:1020500000C0002C1BB9F0FC270F00C0002C0BB9EE
:1020600000C045FF1BB927958894F1FC270F00C0DD
:1020700000C0002C1BB92795889400C0002C0BB918
:1020800000C044FF1BB9F2FC270F2795889400C0BD
:1020900000C0002C1BB9F3FC270F00C0002C0BB9AB
:1020A00000C043FF1BB927958894F4FC270F00C09C
:1020B00000C0002C1BB92795889400C0002C0BB9D8
:1020C00000C042FF1BB9F5FC270F2795889400C07C
:1020D00000C0002C1BB9F6FC270F00C0002C0BB968
:1020E00000C041FF1BB927958894F7FC270F00C05B
:1020F00000C0002C1BB92795889400C0002C0BB998
:1021000000C040FF1BB9472FF110422F8C0D00C0BB
:1021100000C0002C1BB9119709F086CE20EE31E0EB
:10212000D3010E946819DC01CB01F4E0B695A795B4
:1021300097958795FA95D1F730E020E0B901EAE963
:102140006E9E060C611D7E9E600D711D1124670D33
:10215000711D860F971FA11DB11D893E43E0940795
:10216000A105B10508F434C0885E9340A109B10906
:1021700042E0B695A795979587954A95D1F747E0A0
:10218000849F080E211D949F200D311D1124290FBD
:10219000311D60917E0470E0860F971F820F931FA0
:1021A0004091810450918204609183047091840471
:1021B000292F3327420F531F611D711D4093810446
:1021C00050938204609383047093840480937E040C
:1021D0007894C201DF91CF911F910F91FF90EF9002
:1021E000DF90CF90AF909F908F907F906F905F9097
:1021F0004F900C946505539A08954F925F926F9299
:102200007F928F929F92AF92CF92DF92EF92FF9246
:102210000F931F93CF93DF93EB010F962C010E9436
:102220006F05F894E881F9810BB100611BB11F7E45
:102230001BB9CA848F814C2D481B842F4F839F84E8
:102240006A807B80FD84EC84DE84F394E394D394F1
:102250009E8138858984AB844181D30120E0622F3F
:10226000722F7181442788947111780F08F47FEFE1
:1022700081958894F0FC470F47958894F1FC470FAF
:1022800047958894F2FC470F47958894F3FC470FD5
:1022900047958894F4FC470F47958894F5FC470FC1
:1022A00047958894F6FC470F47958894F7FC470FAD
:1022B00047958894272FF110242F8C0D422F002C46
:1022C0000BB900C047FF1BB970812227889400C05A
:1022D00000C0002C1BB97111790F00C0002C0BB984
:1022E00000C046FF1BB908F47FEF9195889400C0A9
:1022F00000C0002C1BB9E0FC270F00C0002C0BB95C
:1023000000C045FF1BB927958894E1FC270F00C04A
:1023100000C0002C1BB92795889400C0002C0BB975
:1023200000C044FF1BB9E2FC270F2795889400C02A
:1023300000C0002C1BB9E3FC270F00C0002C0BB918
:1023400000C043FF1BB927958894E4FC270F00C009
:1023500000C0002C1BB92795889400C0002C0BB935
:1023600000C042FF1BB9E5FC270F2795889400C0E9
:1023700000C0002C1BB9E6FC270F00C0002C0BB9D5
:1023800000C041FF1BB927958894E7FC270F00C0C8
:1023900000C0002C1BB92795889400C0002C0BB9F5
:1023A00000C040FF1BB9472FE110422F980D00C01D
:1023B00000C0002C1BB900C000C0002C0BB900C02D
:1023C00047FF1BB972812227889400C000C0002CEF
:1023D0001BB97111730F00C0002C0BB900C046FF70
:1023E0001BB908F47FEFE90DF11D00C000C0002CFF
:1023F0001BB9D0FC270F00C0002C0BB900C045FF53
:102400001BB927958894D1FC270F00C000C0002C71
:102410001BB92795889400C0002C0BB900C044FF5D
:102420001BB9D2FC270F2795889400C000C0002C50
:102430001BB9D3FC270F00C0002C0BB900C043FF11
:102440001BB927958894D4FC270F00C000C0002C2E
:102450001BB92795889400C0002C0BB900C042FF1F
:102460001BB9D5FC270F2795889400C000C0002C0D
:102470001BB9D6FC270F00C0002C0BB900C041FFD0
:102480001BB927958894D7FC270F00C000C0002CEB
:102490001BB92795889400C0002C0BB900C040FFE1
:1024A0001BB9472FD110422F319500C000C0002C1E
:1024B0001BB93A0D00C000C00BB900C047FF1BB9E3
:1024C00071812227889400C000C0002C1BB97111B3
:1024D000780F00C0002C0BB900C046FF1BB908F4F0
:1024E0007FEF8195889400C000C0002C1BB9F0FCE0
:1024F000270F00C0002C0BB900C045FF1BB9279562
:102500008894F1FC270F00C000C0002C1BB9279550
:10251000889400C0002C0BB900C044FF1BB9F2FC2A
:10252000270F2795889400C000C0002C1BB9F3FC2E
:10253000270F00C0002C0BB900C043FF1BB9279523
:102540008894F4FC270F00C000C0002C1BB927950D
:10255000889400C0002C0BB900C042FF1BB9F5FCE9
:10256000270F2795889400C000C0002C1BB9F6FCEB
:10257000270F00C0002C0BB900C041FF1BB92795E5
:102580008894F7FC270F00C000C0002C1BB92795CA
:10259000889400C0002C0BB900C040FF1BB9472F26
:1025A000F110422F8C0D00C000C0002C1BB91197F8
:1025B00009F086CE20EE31E0D3010E946819DC01DB
:1025C000CB01F4E0B695A79597958795FA95D1F745
:1025D00030E020E0B901EAE96E9E060C611D7E9EA6
:1025E000600D711D1124670D711D860F971FA11DB0
:1025F000B11D893E43E09407A105B10508F434C03C
:10260000885E9340A109B10942E0B695A7959795D8
:1026100087954A95D1F747E0849F080E211D949F26
:10262000200D311D1124290F311D60917E0470E0B1
:10263000860F971F820F931F40918104509182044F
:102640006091830470918404292F3327420F531F14
:10265000611D711D40938104509382046093830433
:102660007093840480937E047894C201DF91CF91AB
:102670001F910F91FF90EF90DF90CF90AF909F90C0
:102680008F907F906F905F904F900C946505549A57
:1026900008950F931F93CF93DF93CDB7DEB7629763
:1026A0000FB6F894DEBF0FBECDBF8C01F901DC017F
:1026B0001C968C917A8369835C834B835E834D8304
:1026C00090819D8791819E8792819F878130F1F4CF
:1026D000CE0101960E94280583E0888B1A8A198A08
:1026E000D801ED91FC910484F585E02DBE016F5F6A
:1026F0007F4FC801099562960FB6F894DEBF0FBEF2
:10270000CDBFDF91CF911F910F9108951C861B863D
:102710001A86198618861F82DFCF0F931F93CF93D7
:10272000DF93CDB7DEB762970FB6F894DEBF0FBE6A
:10273000CDBF8C01F901DC011C968C917A836983F1
:102740005C834B835E834D8390819D8791819E87BF
:1027500092819F878130E9F4CE0101960E9428057D
:10276000188A1A8A198AD801ED91FC910484F5859A
:10277000E02DBE016F5F7F4FC801099562960FB6CD
:10278000F894DEBF0FBECDBFDF91CF911F910F91A7
:1027900008951C861B861A86198618861F82E0CF2C
:1027A00090E080E00895FC01858596850895CF939B
:1027B000DF9300D000D000D0CDB7DEB7AB011C82D4
:1027C0001D821E82DC01ED91FC910190F081E02DD3
:1027D00019821A821B829E012F5F3F4FBE016C5FE0
:1027E0007F4F099526960FB6F894DEBF0FBECDBF7A
:1027F000DF91CF910895FC0184E091E09183808383
:10280000138212828FEF86838783808781878287F6
:10281000838781E0848716861586158214828091CD
:102820000B0690910C06892B21F4F0930C06E09393
:102830000B06A0917C04B0917D04109721F01596B1
:10284000FC93EE931497F0937D04E0937C04089539
:102850000E94C5191F920F920FB60F9211242F9349
:102860003F938F939F93AF93BF93809181049091F7
:102870008204A0918304B09184043091800423E009
:10288000230F2D3758F50196A11DB11D209380040B
:102890008093810490938204A0938304B093840472
:1028A0008091850490918604A0918704B09188045A
:1028B0000196A11DB11D8093850490938604A09379
:1028C0008704B0938804BF91AF919F918F913F91FE
:1028D0002F910F900FBE0F901F90189526E8230F91
:1028E0000296A11DB11DD2CF789484B5826084BDBB
:1028F00084B5816084BD85B5826085BD85B5816004
:1029000085BD80916E00816080936E001092810081
:10291000809181008260809381008091810081603C
:1029200080938100809180008160809380008091FD
:10293000B10084608093B1008091B0008160809389
:10294000B00080917A00846080937A0080917A0050
:10295000826080937A0080917A00816080937A000F
:1029600080917A00806880937A001092C1000E9462
:1029700003054B015C01F0EDCF2EF7E0DF2EE12CDB
:10298000F12C0E940305681979098A099B09683EA0
:10299000734081059105A8F301E0C01AD108E10850
:1029A000F10828EE820E23E0921EA11CB11CC11476
:1029B000D104E104F10429F780919A04811111C036
:1029C00089E894E00E94FB131092990410929804F5
:1029D00084E191E090938A048093890481E080935C
:1029E0009A0489E894E00E94B9048091B3048111AB
:1029F00011C082EA94E00E94FB131092B20410927C
:102A0000B10486E291E09093A3048093A20481E054
:102A10008093B30482EA94E00E94B9048091CC04CC
:102A2000811111C08BEB94E00E94FB131092CB0438
:102A30001092CA0488E391E09093BC048093BB0495
:102A400081E08093CC048BEB94E00E94B9048091E8
:102A5000E504811111C084ED94E00E94FB131092F3
:102A6000E4041092E3048AE491E09093D504809307
:102A7000D40481E08093E50484ED94E00E94B904DD
:102A80008091FE04811111C08DEE94E00E94FB1331
:102A90001092FD041092FC048CE591E09093EE04FA
:102AA0008093ED0481E08093FE048DEE94E00E941B
:102AB000B90480911705811111C086E095E00E944C
:102AC000FB1310921605109215058EE691E0909377
:102AD00007058093060581E08093170586E095E061
:102AE0000E94B904C0910B06D0910C06209789F082
:102AF0008A819B81009749F02D853E85B901660F3B
:102B0000771F620F731F0E94F7040C80DD81C02DB8
:102B1000EDCF10926E0085EE80937A0087E080936F
:102B20007E0080E480937C0055E5952E60EA862E39
:102B300010E0F89480914905882309F4F8C281E4F3
:102B400080937C00ECE7F2E080917A0084FFFCCF78
:102B500080917A00806880937A00909178008091CB
:102B60007900892798278927925046E0880F991F76
:102B70004A95E1F78193919364E0EC37F60721F7EA
:102B80002F923F924F925F92FF920F931F93CF939A
:102B9000DF93CCE7D2E0E4E3F6E0FF2440E0659188
:102BA000759108811981970320010E034F1C1001B4
:102BB0009E035F08300C411C5F1CF8035F08300C5B
:102BC000411C5F1C499259924A9549F7DF91CF9178
:102BD0001F910F91FF905F904F903F902F90112485
:102BE0002F923F926F927F92CF93DF93E4E4F2E0D3
:102BF00048E7A591BB27AA0FBB1FA458BD4F2D9036
:102C00003C90C591DD27CC0FDD1FC458DD4F688097
:102C100079807C926E92288239824A9551F7DF91B1
:102C2000CF917F906F903F902F902F923F924F9235
:102C30005F926F927F928F929F92AF92BF92CF924C
:102C4000DF92EF92FF920F931F93CF93DF93FF24B6
:102C500000E2E02ECCE7D2E0688079804A805B8099
:102C600075946794430155944794640C751C8418BB
:102C70009508AC80BD804E805F80B594A7946501B7
:102C800055944794A40CB51CC418D508688579855B
:102C90004A845B84759567958B0155944794640DC0
:102CA000751D041915098C859D854E845F84959545
:102CB00087959C0155944794840D951D24193509D9
:102CC000759467942301B594A7946A0C7B1C4A18E9
:102CD0005B08959487945401D594C7948C0C9D1CE3
:102CE000AC18BD08759567956B0195958795680F2C
:102CF000791FC81AD90A7594679413017595679559
:102D0000660E771E261A370A42E85AE51503C001F7
:102D1000049FB00114039F09700D811D9F1D509FDA
:102D2000700D811D9F1D959487948401880E991EB6
:102D3000081B190B55944794D201D594C7944C0C99
:102D40005D1CAC19BD093503C001249FB0013403DB
:102D50009F09700D811D9F1D529F700D811D9F1D2C
:102D6000B594A7946501A80EB91EC81AD90A69922C
:102D700079928992999249925992A992B9922992FB
:102D8000399209931993A993B993C992D992EA9464
:102D900009F062CF00E2C02EDD2404E0902EE8E6C8
:102DA000F0E000E1A02EBB2404E0E02EACE7B2E0AE
:102DB000ED01CA0DDB1D8E2C2D903C904880598072
:102DC00035942794310155944794640C751C24184C
:102DD0003508299239927C926E92AC0DBD1D1197E7
:102DE000EA94088119813C912E9145915591659104
:102DF000759115022001049F100114035F08300C27
:102E0000411C5F1C509F300C411C5F1C370230017D
:102E1000269F200C311C461C571C36035F08300CC3
:102E2000411C5F1C729F300C411C5F1C0E01CA19B3
:102E3000DB0928803980359427943101640C751C96
:102E40002418350868827982E001299239921702A4
:102E50002001069F100116035F08300C411C5F1C07
:102E6000709F300C411C5F1C35023001249F2018DC
:102E700031084608570834035F1C301841085F08C2
:102E8000529F301841085F080D01AA19BB092D9007
:102E90003C90359427943101640C751C2418350836
:102EA0007C926E92D0012D923C921297EA9409F096
:102EB00098CFDE01AA19BB092D903C90488059801B
:102EC00035942794310155944794640C751C24184B
:102ED0003508288239827C926E92C5019695879535
:102EE000C80FD91FCC37D90540F4DE01CA0DDB1D50
:102EF000E82CEA19FB0934965FCF86FC06C0EA2C61
:102F0000E6945601CC0CDD1C51CFDF91CF911F917F
:102F10000F91FF90EF90DF90CF90BF90AF909F9078
:102F20008F907F906F905F904F903F902F901124E3
:102F30002F923F924F925F926F927F928F92FF9269
:102F40000F931F93CF93DF93ACE7B2E0CCE7D1E0D0
:102F5000ECE7F4E04F01FF2440E80D911D9198014A
:102F600006C0F4010D911D91329122914F01110281
:102F70002001009F100198035F08300C411C5F1C6A
:102F800033023001229F200C311C461C571CBA030F
:102F90005F08300C411C5F1C1127552061F018E0C0
:102FA000F201F03428F5330CEE1FFF1F330CEE1F37
:102FB000FF1F1A951DC0442069F014E0F42DE32D85
:102FC000F034B0F4220CEE1FFF1F220CEE1FFF1F87
:102FD0001A95F6CFF101F03458F4F03160F4F13085
:102FE00078F0F295E295EF70EF2BE695F1E008C0EE
:102FF000EF2FF2E005C0EE0FFF1FEF2FE068F1E0CA
:10300000EC5CFC4F04912227112321F0000F221FBA
:103010001A95E1F7099329934A9509F0A2CFDF9118
:10302000CF911F910F91FF908F907F906F905F9045
:103030004F903F902F901124789460E871E0CFE199
:10304000D5E03AE4E32E35E0F32EF7015E013FEFE1
:10305000DB014D915D91BD0156954795495151094F
:10306000D5014D935D935D014A3051050CF061C06F
:10307000108211821282399629E4A21625E0B20646
:1030800039F787E4A82E85E0B82E93E0C92ED12C1D
:103090004FEFF70121E030E0A881B981B601621B52
:1030A000730B6A9FC0016B9F900D7A9F900D112446
:1030B000AA81BB812A9FB0012B9F700D3A9F700D92
:1030C0001124860F971FB6010E9435196A307105C9
:1030D0000CF067C0138214821582339622303105BA
:1030E00009F05CC029E0E20EF11C2296AC16BD0688
:1030F00081F680914905882309F488C081E090E039
:103100000E94A6040E94450483E090E00E94A60469
:103110000E94450485E090E00E94A6040E944504B8
:103120008091490591E089278093490502CD80E48B
:1031300007CD4F3F510529F024F03083318332838E
:103140009ACF282D092D209F020E20E0211D112449
:10315000822F922F90954F3FD1F0212F442321F0C1
:10316000449F212D09F02F5F2223A9F0882341F0ED
:10317000482F429F040E40E0411D842F992331F0D7
:10318000092F029F000E00E0011D902F1124808363
:103190001182928370CF90E080E0F9CF22E030E09E
:1031A0007BCF6F3F710529F024F04383448345832F
:1031B00094CF582D092D509F050E50E0511D11241C
:1031C000852F952F90956F3FD1F0512F662321F0D9
:1031D000669F512D09F05F5F5523A9F0882341F0C8
:1031E000682F659F060E60E0611D862F992331F0E0
:1031F000092F059F000E00E0011D902F11248383ED
:10320000148295836ACF90E080E0F9CF90E080E06F
:103210000E94A6040E94450484E090E00E94A60457
:103220000E94450486E090E077CFEEEFF5E08FEF67
:10323000808312821182148613868FEF9FEFDC0148
:1032400087839087A187B2870895DB018F939F932F
:103250000E946F19BF91AF91A29F800D911DA39FF6
:10326000900DB29F900D1124089597FB072E16F430
:10327000009407D077FD09D00E947A1907FC05D089
:103280003EF4909581959F4F0895709561957F4F7D
:103290000895052E97FB1EF400940E94601957FDB7
:1032A00007D00E948E1907FC03D04EF40C946019CD
:1032B00050954095309521953F4F4F4F5F4F089562
:1032C00090958095709561957F4F8F4F9F4F089592
:1032D0000E94B619B7FF0895821B930B08950E94B0
:1032E000B619A59F900DB49F900DA49F800D911DC0
:1032F00011240895AA1BBB1B51E107C0AA1FBB1FC5
:10330000A617B70710F0A61BB70B881F991F5A9571
:10331000A9F780959095BC01CD010895A1E21A2EE0
:10332000AA1BBB1BFD010DC0AA1FBB1FEE1FFF1F69
:10333000A217B307E407F50720F0A21BB30BE40BB9
:10334000F50B661F771F881F991F1A9469F7609500
:103350007095809590959B01AC01BD01CF010895BA
:10336000EE0FFF1F0590F491E02D0994A29FB0018C
:10337000B39FC001A39F700D811D1124911DB29FA9
:10338000700D811D1124911D089581E090E0F89445
:083390000C94CA19F894FFCF58
:1033980000000000281428142814D713D313D013BE
:1033A800000000008D134913CB07D713D313C807A8
:1033B8007E05000000008D134913170AD713D31395
:1033C800C807CD07000000008D134913630CD713FD
:1033D800D313C807190A000000008D134913AF0E54
:1033E800D713D313C807650C000000008D134913C9
:1033F800FB10D713D313C807B10E000000008D13BC
:0C34080049134713D713D313C807FD1056
:00000001FF
